:020000040000FA
:0600000036EF13F01200C0
:0600080004EF08F01200F5
:060018000CEF08F01200DD
:0610000036EF13F01200B0
:061008009AEF10F0120047
:06101800E5EF10F01200EC
:06102A000100A0260000F9
:08103000FE00000002000000B8
:0810380071EC0EF0A09A6A6A47
:10104000686A706ABBEC0DF009EC0EF0DF6AF1EC37
:101050000DF003E2A1EC0DF0FAD76D8C6E6A6D987D
:101060006D9C68A607D068960101186B1D6B1E6BFE
:101070001F6BF7D70101010E316F326F336B346B89
:10108000256BDF6A030EDF5C11E2EA6ADF3474EC81
:101090000EF0EA22EE6AED6AEA6ADF347BEC0EF0CB
:1010A000EA22EE6AED6AB1EC0DF0ECD70101080E10
:1010B0000E6F040E0F6F160E706E0401300E026F6D
:1010C000040E036F080E016F840E006F0101016BA7
:1010D000006BE5527BEF0DF071EC0EF001010005A5
:1010E00007E16DBA05D0686A69806988020E006FF1
:1010F0006850040B05E06950040B02E068943FDB84
:101100006DB245D06850010B09E06950010B06E053
:1011100093DFA08A0101040E006F68906850100BE5
:1011200005E06950100B02E020DB689868AC0FD036
:1011300069AC05D010EC0EF0730E68EC0DF0689CF5
:1011400001012F5101E02F072F5101E109D968500A
:10115000200B04E06950200B01E0F7DA6850020B25
:101160000BE06950020B08E010EC0EF0E6687F0E11
:10117000E66E82EC0EF06A6A040E0101E76E001959
:10118000E8AE02D0E73402D0E750005D02E2A19A57
:101190002ED069A62BD0DF6A040EDF5C27E268A69A
:1011A00025D06CCF26F101012651780BE842E842A8
:1011B000E842276F689626B504D0275189EC0EF0D7
:1011C00003D027518EEC0EF0EA22EF70275102E196
:1011D000E2DA0AD0000EE66EE66A260EE66E010E30
:1011E000E66E720E68EC0DF0DF2AD6D7A19AE552B2
:1011F0007BEF0DF043EC0EF0FD0EDBA403D0E66AAE
:10120000F9EC0DF0FD0EDBA204D0010EE66EF9EC58
:101210000DF0FE0EDB500C6A700F0B6E0F0EEBEC38
:101220000DF06CEC0DF0FD0EDBCFEFFF020EE15C7C
:1012300002E2E16AE552E16E7BEF0DF043EC0EF065
:10124000FD0EDB5003E063EC0DF002D092EC0DF0EC
:10125000D7EC0DF0D9CFE9FFDACFEAFFEE50ED1071
:1012600003E1F36AF46A28D06CEC0DF09DEC0EF00B
:10127000FB0EDBCFEEFFFC0EDBCFEDFF6CEC0DF0D9
:10128000EE52FA0EDBCFEFFF400E93EC0EF0880E1D
:10129000A2EC0EF0FD0EDB5003E063EC0DF002D08B
:1012A00092EC0DF0EA22EF74DECF0BF0DDCF0CF004
:1012B0000BC0F3FF0CC0F4FF020EE15C02E2E16A36
:1012C000E552E16E7BEF0DF043EC0EF0FE0EDB50CD
:1012D00003E151EC0EF009D097EC0DF031EC0EF07B
:1012E00097EC0DF0010F31EC0EF0020EE15C02E222
:1012F000E16AE552E16E7BEF0DF076EC0DF06DA842
:1013000016D062EC0EF0400EEE16EE6AEE6AEE6A51
:1013100062EC0EF0EE7CD7DBEA22EF74400E0B6E2F
:1013200062EC0EF00B50EF1662EC0EF0EF7CE3D3A4
:101330006D6A696A0101006B1200010100510FE141
:101340006D6A696A09EC0EF0D08EA28AA08AF28ECC
:101350006DB602D06D86FCD70101010E006F120040
:101360000101315122E1010E316F32511EE1010EB6
:10137000326F020E155D07E1B4DBEE52EF6AB1DBAE
:10138000C80EEF6E1200150510E1286BC0DBEE529F
:10139000080EEF6EBCDB3DEC0EF0B9DB840EEF6E99
:1013A000010E286F8CDB800EEF6E12000101336B93
:1013B000346B020E155D06E197EC0EF0ADDB2CEC04
:1013C0000EF010D019510401365D01011A510401CB
:1013D000375904E236C419F137C41AF161D881DBF8
:1013E0009BDB7FDBC80EEF6E120043EC0EF0000EAD
:1013F000DE6E040EDD6E9BDB040DF4CF0CF0D9CF56
:10140000E9FFDACFEAFFF350EE260C50ED2264DB61
:10141000EF9EFD0EDB5002E185DB01D054DBEA22BA
:10142000DECFEEFFDDCFEDFF57DBEF9C55DB040E8B
:10143000E926000EEA22EF8C020EE15C02E2E16A8C
:10144000E552E16E58D36D98010118BF0DD01DAF64
:1014500009D0020E156F345101E1A8DF0101326B92
:10146000316B120051EF0EF0040130AF0DD00101CD
:10147000010E156F335101E199DF0101326B316BC0
:1014800030510DE1B0EF09F00101020E156F17DBCD
:10149000840EEF6E326B316B305101E161DF12006F
:1014A00071EC0EF0080EDF6E0101195D000E1A5985
:1014B0000AE219C1DFFF145102E1010E03D0140545
:1014C00002E1020E146FDF500C6AE850195D196FCB
:1014D0000C501A591A6F05DBEE52DFCFEFFF380EB2
:1014E000226F040E236F18B10DD0DF5017E016C124
:1014F000F6FF17C1F7FF162B000E17230800F55053
:1015000049DBF3D7DF500AE016C1E9FF17C1EAFF54
:10151000162B000E1723EF503DDBF4D7E552EBD22C
:10152000B2DBF5DAEE52EFCFDFFFDFCF0BF00B507F
:1015300001011E5D000E1F5902E21EC1DFFFDF50D8
:101540000B6E0C6AE8501E5D1E6F0C501F591F6F0A
:10155000010EDB6ADF50F36E010EDBCFF4FFF350B8
:10156000F45C16E2010EDB50EA6A380FE96E040EF5
:10157000EA22EF50E66E1BC1E9FF1CC1EAFF1B2BFC
:10158000000E1C23E552E750EF6E010EDB2AE2D776
:10159000000ED8801E55000E1F550DE2C8DBBCDAC8
:1015A000B6DAEF50400B03E157DBC80E02D054DB34
:1015B000880EEF6E12D083DA840EEF6E2051211167
:1015C00007E005D021C1FAFF01012051F96EFADFD1
:1015D00001011D9F305101E1C3DE020EE15C02E218
:1015E000E16AE552E16E87D27CDB0101188FC3DA34
:1015F000DF6AF7DA02E2A5DAFCD76D8CDF6A030E48
:10160000DF5C02E2AEDAFBD7020EE66EE66AE66A5D
:10161000020EE66E010E5DDB6D9C0101080E0E6F81
:10162000040E0F6F000E046F040E056F04C106F167
:10163000076F32C401F1015102E1100E0BD0010E0F
:10164000E66EE66A010EE66E010EE66E010E40DA07
:101650000101200E006FE5524ED2800E0401305D74
:1016600038E10101C00E186F04013351030A1AE07A
:10167000010A09E0030A2BE10101B00E166F240EE6
:10168000176F120E1ED0DADA710EF626250EB9DAB1
:10169000020E0101CCDAF5CF19F1030EC8DAF5CF4D
:1016A0001AF11200030E325D0FE2C8DA730EF6264D
:1016B000250EA7DA16C1F6FF17C1F7FF0800F5508F
:1016C0000101196F1A6B12000101186B1200010160
:1016D000186B1200D8DA0401386B396B30511F0BCC
:1016E000020A11E0030A0CE0010A1EE10101188F51
:1016F000040138810101240517E10401388314D065
:101700000101188F11D00101188F040134BF02D0DC
:10171000CFDA01D0D2DA4BDAD8DA06E0DDD9EF50F1
:10172000040B02E0010E386F010118AF07D0380E2C
:10173000166F040E176F1881020E196F020EE15C0E
:1017400002E2E16AE552E16ED6D170A00CD0DFD999
:10175000EF50800807E1C5D9EF50840803E1D7D9DD
:101760008C0EEF6E7090689A1200698468986D8292
:101770000101010E256F21DA750E68EF0DF00101F0
:10178000256B1BDA740EA4D96D92699468A402D0FB
:101790006894FCD71200A5DA01012D0E2F6FFD0E03
:1017A000261539E17E0E2615E8407F0B040DF3CF98
:1017B00004F1F4CF05F1000E0427040E052304C143
:1017C00006F105C107F10675A2D9EF503C0BE842BE
:1017D000E8420D081EE1DF6A080EDF5C16E297D9C9
:1017E000020EE926000ED0D9EF50E66EDF50EA6A0D
:1017F000300FE96E040EEA22E552E750EF6E87D90A
:101800009CDAEE2AEF22DF2AE7D781D936DA0AD826
:1018100007D023D805D0FD0E2615040801E12CD8E9
:10182000E55269D10101146B306B336B346B286B5B
:10183000156B57D9EF9E0E7554D9EF9E0E750CDAC5
:10184000EF9E186B196B1A6B1D6B1E6B1F6B4ED8BE
:10185000B4D9030E3DD923EF0AF0020E0101155D44
:1018600002E190EF0AF0156B285104E128D98C0EA3
:10187000EF6E1200286B120034DA33D9EF50400BB0
:1018800001E0010EDF6E01010E75080E005D08E13A
:1018900032C46EFF6E5002E0100E01D0040E006FD5
:1018A000150513E11ED938D9FBDD020E0101145DC7
:1018B00003E117D9840E07D0DF5003E112D9C80E17
:1018C00002D00FD9880EEF6E0FD01DAF0CD0205173
:1018D000211107E005D021C1FAFF01012051F96E65
:1018E000FADF01011D9F156BE55205D1040130514E
:1018F000600BE842E842E842E842E842000901E0C1
:10190000120031510C0A45E00B0A3FE00C0A31E0AD
:10191000010A22E00B0A1EE0020A1CE0030A18E09A
:10192000080A10E0010A0CE00F0A08E0030A01E0CF
:1019300012000101188F080E006F12002DEF0BF03E
:10194000F4EF0AF00101010E166F010E176F0CD0B3
:101950006AEF0BF0CAEF0CF034510101166F176BF0
:10196000020E1627010E17231881010E196F188F0A
:1019700012000101188F04013451EA6A020FE96E66
:10198000010EEA2232C4EFFF120017D9020E68EFEF
:101990000DF01200ABD8050EE1260401320510E16E
:1019A00030511F0B00090CE10101188F030E0401D7
:1019B000315D04E10101010E246F02D00101246BAD
:1019C0000401325101E074D030511F0B020870E164
:1019D00034510F0B00096CE034510F0B020868E31F
:1019E000200E0101005D64E1188F040134BF04D0B2
:1019F0005FD9DDD8E8D803D060D9D9D8E8D8EA22B1
:101A0000020EEFCFDBFF21D9010B03E1000EDF94C3
:101A100001D0DF8434BF02D04BD901D04ED9EA22A5
:101A2000DECFEEFFDDCFEDFF030E315D0CE14DD9D2
:101A300007E034BF02D0C7D801D0C9D8EA22EF826C
:101A4000840E80D935D0DF7440D906E045D8EF9EAA
:101A500043D8EF8C1CD902D03FD8EF8CDF74F5D877
:101A6000020B02E132D90DE0040134BF02D0ABD841
:101A700001D0ADD8EA22EF923B0E0B6E54D907D9B4
:101A800002D03B0E50D9040134510F0B0C6A700F79
:101A90000B6E0F0E0C22030E0BC0DBFF040E0CC0EE
:101AA000DBFF030EDBCFE9FF040EDBCFEAFFEF9095
:101AB000050EE15C02E2E16AE552E16E1CD037D925
:101AC000DCD82CEF0EF0FE0EEA6ADB3474EF0EF079
:101AD000E66EE66A82EF0EF0DECFE9FFDDCFEAFFC9
:101AE00012000EC1E9FF0FC1EAFF1200D9CFE6FFD5
:101AF000E1CFD9FF1200E552E7CFD9FF12003451F0
:101B00000F0BE96EEA6AD890E936EA36120004C192
:101B1000E9FF05C1EAFF120010D9380EEE6E040E7F
:101B2000ED6E1200FE0EEA6ADB347BEF0EF0FD0E66
:101B3000DB50E8240D6EFE0EDB50040DF3500D2437
:101B40001200DF50040DF3CFE9FFF4CFEAFF000EDF
:101B5000E926040EEA22EE6AEE6AEE6AEE6ADF2AEF
:101B60001200DF50DBD8EA22EF6ADF50D2D8EA2237
:101B7000EF6ADF2A1200020EE66EE66AE66A710E6E
:101B8000E66E0F0E69EF0EF0EA22EE50EFCFEAFF9D
:101B9000E96E1200E66E22C1E9FF23C1EAFF222BA3
:101BA000000E2323E552E750EF6EDF061200EA2213
:101BB000EECFDEFFEDCFDDFF1200000EE66EE66A2F
:101BC000E66EE66A120034510F0B89EF0EF03451C5
:101BD0000F0B8EEF0EF00C220BC0DEFF0CC0DDFFF2
:101BE0001200DF500B6E0C6A0C0E0B5C000E0C58D2
:101BF0001200FE0EDBCFE6FFF5EC09F0E552E552F0
:101C00001200F7220900F5CF16F10A00F5CF17F1FF
:101C10001200160E6F6E9F0E6B6E7B0E696E1200B9
:101C2000010EE66EE66A000EE66EE66A1200F76ADC
:101C30001625F66E1751F722080012003251F66E83
:101C4000F76AD890F636F7361200D950020FE96ECF
:101C5000DACFEAFFEF50120006C1E9FF07C1EAFF41
:101C60001200040DF3CF0BF0F4CF0CF0000E0B2696
:101C7000040EB1DF840EA2EF0EF05FD8300EEE6ED0
:101C8000040EED6E120032DF020EE1261200020E8B
:101C9000E66EE66ADECFE6FFDDCFE6FF050E68EF13
:101CA0000DF00DDF8C0EEF6E1CDF840EEF6E120058
:101CB00026DF080EE926010E120021DF0E0EE926AE
:101CC000010E120000DFC4EF0DF006DFEF50800BB5
:101CD0001200E66E0CEC13F00B6E050EE15E0B507D
:101CE000120004DFE6521200FE0BEA36E96E0E0E19
:101CF000E926010E1200FE0BEA36E96E080EE9260F
:101D0000010E120006EC12F00B6E060EE15E0B5097
:101D10001200EA6A2C0FE96E010E1200EA6A290F1E
:101D2000E96E010E1200D8DEE850EF16120094DFC3
:101D3000EE52080EEF6E2CEF0EF0020EE926000EAA
:0C1D4000EA221200C9DEE850EF12120087
:041D4C00040130510D
:101D50001F0B010801E012003051600BE842E8421D
:101D6000E842E842E842010801E01200345103E091
:101D7000340501E012003151220A31E0030A24E067
:101D8000010A15E0210A0DE0010A01E0120001013B
:101D9000F60E166F000E176F080E196F1A6B18816A
:101DA00021D00101F60E166F000E176F1BD036C43E
:101DB0001EF137C41FF101018A0E1B6F050E1C6F47
:101DC000206B216B1D8F120001018A0E166F050E0C
:101DD000176F070E196F1A6BC10E186F120032C4FD
:101DE000F1F00101188F120005018A6B4B0E8B6F09
:101DF0008C6B8D6B8E6B8F6B080E906F0001E56B9B
:101E00001A0EE66E010EE66EFAEC08F0E552E552A7
:101E10001E0EE66E020EE66EFAEC08F0E552E55292
:101E200024D90001EF6BF06BE66B120049D97BD926
:101E3000050E061801E1075002E0000E14D050D93B
:101E40000001ED510B1804E1EE510C1801E10DD920
:101E500047D90001EF510B1805E1F0510C1802E1D0
:101E6000E66BEB6B010E31D12BD90001E56BED5127
:101E7000EE1102E1000E05D041D9EF50800B01E0D8
:101E8000010E00092DE1FC0EDBCF0BF037D9EE522D
:101E9000EF50D8800B5405E231D9EE52FC0EEFCF53
:101EA000DBFFE56BFC0EDB50E55D19E2E551EA6A0C
:101EB0000A0FE96E050EEA22EF50E66EE551E76E75
:101EC000FD0EDBCFE9FFFE0EDBCFEAFFE750E92690
:101ED000000EEA22E552E750EF6EE52BE3D7C5D8B6
:101EE0000001E551F2D0ECD8A09A0001E65107E1DB
:101EF000F0D8FC0EDBCFEBF0010EEC6FE66FA08AA2
:101F0000E4D00AD917E1C6D8F2D802E10C500BE0B0
:101F1000010EDBCFE9FFDB2A020EDBCFEAFF01E394
:101F2000DB2AEF50F1E1D5D8DFCFEBF00001010E55
:101F3000EC6FE66FA08A030EE15C02E2E16AE55213
:101F4000E16EC3D0E9D818E1A5D8D1D802E10C5090
:101F50000CE0010EDBCFF6FFDB2A020EDBCFF7FF32
:101F600001E3DB2A0800F550F0E1B3D8DFCFEBF056
:101F70000001EC6B010EE66FA08A030EE15C02E249
:101F8000E16AE552E16EA1D09BD8020EE126A09A4B
:101F90000001EF51F01102E1000E08D0EFC0E9FF9F
:101FA000F0C0EAFFEF50800B01E0010E000906E1EE
:101FB000030EE65D01E1E66BE65102E1A08A4ED038
:101FC000020EE65D09E1E66A000EE66EE66A5AD8A0
:101FD0000001030EE66F41D0E6053FE1400E0B6EB7
:101FE0000C6AEB510B5C000E0C5803E2400EDF6EE6
:101FF00002D0EBC0DFFFDF50EB5DEB6F4A0EE96F05
:10200000050EEA6F010EDFCFDBFFEC510BE1010E95
:10201000DB5012E0E7C0F6FFE8C0F7FF0800F5501C
:1020200042D8F5D7010EDB5007E0E7C0E9FFE8C072
:10203000EAFFEF5038D8F6D70001EB5107E1400E28
:10204000DF5C02E1020E01D0030EE66FDFCFE6FF98
:102050004A0EE66E050EE66E15D8A08A020EE15C09
:1020600002E2E16AE552E16E30D0400EE66E0A0E01
:10207000E66E050EE66EE66A46D8F3CFEDF0F4CFD5
:10208000EEF01200010EE66E3ED8F3CFEFF0F4CF83
:10209000F0F01200DF6A47D8DE5206C0DEFF07C04C
:1020A000DDFFDD521200E9C0E9FFEAC0EAFFEF6E92
:1020B000E92B000EEA23E72BE823010EDB061200D2
:1020C000D9CFE6FFE1CFD9FF1200E552E7CFD9FF24
:1020D0001200FD0EDBCFE7F0FE0EDBCFE8F01200C2
:1020E000FB0EDBCF0BF0FC0EDBCF0CF01200DF2A77
:1020F000DF500B6E0C6AFF0E0B181200EDC0E9FFEB
:10210000EEC0EAFF1200020EE66E1EEC09F00B6E46
:10211000050EE15E0B501200D3DF030EE126A09AFC
:102120000001E6511200FD0EDBCF06F0FE0EDBCF04
:0421300007F01200A2
:0C213400DACFE4FFE2CFDAFFE9CFE4FFEE
:10214000EACFE4FFF6CFE4FFF7CFE4FFF5CFE4FFFB
:10215000F3CFE4FFF4CFE4FFFACFE4FF00EE00F0AA
:102160000B0EE80403E3EECFE4FFFBD700EE0BF029
:10217000030EE80403E3EECFE4FFFBD7E6526CEC7A
:1021800008F0E55200EE0DF0030EE80403E3E5CF9E
:10219000EDFFFBD700EE0AF00B0EE80403E3E5CFFA
:1021A000EDFFFBD7E5CFFAFFE5CFF4FFE5CFF3FF77
:1021B000E5CFF5FFE5CFF7FFE5CFF6FFE5CFEAFF87
:1021C000E5CFE9FFE5CFDAFF1100D8CFE4FFE0CF9C
:1021D000E4FFE46EDACFE4FFE652E552E5CFDAFF42
:1021E000E550E5CFE0FFE5CFD8FF100007D80101AB
:1021F000005102E19DEC09F011D8F9D70F0EC11280
:1022000002D81CEF08F00001E26BE16B010EE06FF9
:10221000F00E8C1695169388938A1200D9CFE6FF9C
:10222000E1CFD9FF020EE1266ED8200E0101E76E44
:102230000019E8AE02D0E73402D0E750005D59E360
:102240006D50020B56E10001E15111E0E05110E147
:102250000001E6510DE1880EE66E260EE66EA2EC58
:102260000FF0E552E5520001010EE06F01D0E06B86
:102270000001E6513CE1400EE66EA00EE66E000E57
:10228000E66E34EC0FF0E552E552E552DF6EDF50BA
:102290002EE0010EDB6ADF50F36E010EDBCFF4FFA0
:1022A000F350F45C19E2FCD8EF500A0A02E0070A86
:1022B00003E1F6D8EF5002D0F3D8EF28E66E010E16
:1022C000DB50EA6A600FE96E000EEA22E552E75041
:1022D000EF6E010EDB2ADFD7DFCFE6FF600EE66E82
:1022E000000EE66E73EC0FF0E552E552E552C4ECD9
:1022F0000FF0020EE15C02E2E16AE552E16EE552A6
:10230000E7CFD9FF12000001FE51FF1104E1100ECA
:10231000FE6F270EFF6FFE07000EFF5B6DA207D05A
:10232000FE51FF112EE18C708CB013D027D001012B
:10233000005102E18C9022D0000502E18C8009D08E
:10234000020E005D02E18C8019D0040E005D03E1F5
:102350008C908C821200100E005D06E10001FE518F
:10236000FF110FE18C700AD0200E005D0AE1000120
:10237000FE51FF1106E18C708CA002D08C921200ED
:102380008C821200120012008150100B01E0010E2D
:102390000001E15D0DE1E25102E0E207120081502F
:1023A000100B100A01E0010EE16F640EE26F1200E3
:1023B000E25101E0E20712001200A6EF0EF0120057
:1023C000F4EF0EF00101240520E1010125051DE1D6
:1023D000A09AD9DF6D920101256B0001100EE36F09
:1023E0000E0EE46FE307000EE45BE351E411FAE143
:1023F0006D84080EE36F070EE46FE307000EE45BE5
:10240000E351E411FAE16D94A08A1200D9CFE6FFFE
:10241000E1CFD9FFFD0EDBCF06F0FE0EDBCF07F0DC
:10242000050E061801E1075036E0E868061802E1DB
:102430007F0E07182FE0030E061801E1075028E071
:10244000020E061801E1075021E0010E061801E115
:1024500007501AE0740E061801E1075013E0750EDC
:10246000061801E107500CE0730E061801E1075051
:1024700005E0720E06180FE107500DD085DF0BD076
:1024800081DF09D080DF07D09BDF05D098DF03D044
:1024900094DF01D091DF010EE552E7CFD9FF1200A2
:1024A000010EDB50EA6AA00FE96E000EEA2212006C
:1024B0001201000202000008D8040A000001010213
:1024C000000109024300020100C0320904000001BA
:1024D0000202010005240010010424020205240662
:1024E0000001052401000107058103080002090419
:1024F0000100020A00000007050202400000070573
:1025000082024000000403090434034D00690063A3
:102510000072006F006300680069007000200054C2
:10252000006500630068006E006F006C006F00675C
:10253000007900200049006E0063002E0034034340
:1025400000440043002000520053002D00320033AD
:10255000003200200045006D0075006C00610074C1
:102560000069006F006E002000440065006D006F80
:0925700000C224052509253D25C2
:06257A002A0EF66E100EA1
:10258000F76E000EF86E01010900F5503A6F090070
:10259000F5503B6F03E13A6701D03DD00900F5509B
:1025A000356F0900F550366F0900F550376F090097
:1025B0000900F550E96E0900F550EA6E09000900BE
:1025C0000900F550386F0900F550396F090009000E
:1025D000F6CF3CF1F7CF3DF1F8CF3EF135C1F6FF34
:1025E00036C1F7FF37C1F8FF0101385302E1395313
:1025F00007E00900F550EE6E3807F8E23907F9D721
:102600003CC1F6FF3DC1F7FF3EC1F8FF01013A07AB
:08261000000E3B5BBFD7120076
:08261800FE0EE3CFE9FFFF0E07
:10262000E3CFEAFFE9CFF3FFEACFF4FFFB0EE3507D
:1026300003E1FC0EE35009E0FB0EE30602E2FC0EB0
:0C264000E306FD0EE350EE6EF1D7120031
:04264C00000EF36E1B
:1026500000EE00F0080E01D81200EA6002D0EE6A27
:0C266000FCD7F350E9601200EE6AFCD7D2
:04266C0013EE00F079
:1026700023EE00F0F86A0A9CBDEC12F04FEC13F068
:08268000F6EC10F0FBD712008C
:08268800427574746F6E20505E
:0D269000726573736564202D2D200D0A0006
:02269E00120028
:0226A000000038
:020000040030CA
:0100000024DB
:010001000EF0
:010002003FBE
:010003001EDE
:010005008179
:010006008178
:010008000FE8
:01000900C036
:01000A000FE6
:01000B00E014
:01000C000FE4
:01000D0040B2
:00000001FF
