:020000040000FA
:060000007EEF07F0120084
:020006000000F8
:0600080004EF08F01200F5
:060018000CEF08F01200DD
:02001E000100DF
:0C00200006000000F905000002000000CE
:04002C006BEC06F083
:10003000A09A6A6A686A706AB5EC05F003EC06F08B
:10004000DF6AEBEC05F003E29BEC05F0FAD76D8C70
:100050006E6A6D986D9C68A607D068960001786BF3
:100060007D6B7E6B7F6BF7D70001010E916F926FF6
:10007000936B946B856BDF6A030EDF5C11E2EA6AB7
:10008000DF346EEC06F0EA22EE6AED6AEA6ADF34EB
:1000900075EC06F0EA22EE6AED6AABEC05F0ECD7FF
:1000A0000001080E6E6F040E6F6F160E706E040165
:1000B000300E026F040E036F080E016F840E006F86
:1000C0000001616B606BE55275EF05F06BEC06F0BB
:1000D0000001600507E16DBA05D0686A698069882A
:1000E000020E606F6850040B05E06950040B02E0DB
:1000F00068943FDB6DB245D06850010B09E0695050
:10010000010B06E093DFA08A0001040E606F689087
:100110006850100B05E06950100B02E020DB689876
:1001200068AC0FD069AC05D00AEC06F0730E62EC37
:1001300005F0689C00018F5101E08F078F5101E1AC
:1001400009D96850200B04E06950200B01E0F7DA70
:100150006850020B0BE06950020B08E00AEC06F055
:10016000E6687F0EE66E7CEC06F06A6A040E00011B
:10017000E76E6019E8AE02D0E73402D0E750605D68
:1001800002E2A19A2ED069A62BD0DF6A040EDF5CB2
:1001900027E268A625D06CCF86F000018651780B47
:1001A000E842E842E842876F689686B504D08751F6
:1001B00083EC06F003D0875188EC06F0EA22EF705A
:1001C000875102E1E2DA0AD0000EE66EE66A860E98
:1001D000E66E000EE66E720E62EC05F0DF2AD6D7F0
:1001E000A19AE55275EF05F03DEC06F0FD0EDBA49B
:1001F00003D0E66AF3EC05F0FD0EDBA204D0010E9D
:10020000E66EF3EC05F0FE0EDB500C6A700F0B6E21
:100210000F0EE5EC05F066EC05F0FD0EDBCFEFFF11
:10022000020EE15C02E2E16AE552E16E75EF05F073
:100230003DEC06F0FD0EDB5003E05DEC05F002D076
:100240008CEC05F0D1EC05F0D9CFE9FFDACFEAFF6D
:10025000EE50ED1003E1F36AF46A28D066EC05F085
:1002600097EC06F0FB0EDBCFEEFFFC0EDBCFEDFFD5
:1002700066EC05F0EE52FA0EDBCFEFFF400E8DEC90
:1002800006F0880E9CEC06F0FD0EDB5003E05DEC02
:1002900005F002D08CEC05F0EA22EF74DECF0BF013
:1002A000DDCF0CF00BC0F3FF0CC0F4FF020EE15CDD
:1002B00002E2E16AE552E16E75EF05F03DEC06F011
:1002C000FE0EDB5003E14BEC06F009D091EC05F09B
:1002D0002BEC06F091EC05F0010F2BEC06F0020E72
:1002E000E15C02E2E16AE552E16E75EF05F070EC67
:1002F00005F06DA816D05CEC06F0400EEE16EE6A26
:10030000EE6AEE6A5CEC06F0EE7CD7DBEA22EF7474
:10031000400E0B6E5CEC06F00B50EF165CEC06F03A
:10032000EF7CE3D36D6A696A0001606B1200000123
:1003300060510FE16D6A696A03EC06F0D08EA28A03
:10034000A08AF28E6DB602D06D86FCD70001010E38
:10035000606F12000001915122E1010E916F9251E4
:100360001EE1010E926F020E755D07E1B4DBEE52E5
:10037000EF6AB1DBC80EEF6E1200750510E1886BF5
:10038000C0DBEE52080EEF6EBCDB37EC06F0B9DBDB
:10039000840EEF6E010E886F8CDB800EEF6E120004
:1003A0000001936B946B020E755D06E191EC06F013
:1003B000ADDB26EC06F010D079510401365D00016A
:1003C0007A510401375904E236C479F037C47AF01F
:1003D00061D881DB9BDB7FDBC80EEF6E12003DEC4A
:1003E00006F0000EDE6E040EDD6E9BDB040DF4CF16
:1003F0000CF0D9CFE9FFDACFEAFFF350EE260C502C
:10040000ED2264DBEF9EFD0EDB5002E185DB01D0C7
:1004100054DBEA22DECFEEFFDDCFEDFF57DBEF9CB2
:1004200055DB040EE926000EEA22EF8C020EE15C99
:1004300002E2E16AE552E16E58D36D98000178BF9F
:100440000DD07DAF09D0020E756F945101E1A8DF88
:100450000001926B916B12004BEF06F0040130AF7C
:100460000DD00001010E756F935101E199DF00017C
:10047000926B916B90510DE1AAEF01F00001020E19
:10048000756F17DB840EEF6E926B916B905101E1EB
:1004900061DF12006BEC06F0080EDF6E0001795D83
:1004A000000E7A590AE279C0DFFF745102E1010EB1
:1004B00003D0740502E1020E746FDF500C6AE8503D
:1004C000795D796F0C507A597A6F05DBEE52DFCF88
:1004D000EFFF380E826F040E836F78B10DD0DF50BE
:1004E00017E076C0F6FF77C0F7FF762B000E772374
:1004F0000800F55049DBF3D7DF500AE076C0E9FF8A
:1005000077C0EAFF762B000E7723EF503DDBF4D760
:10051000E552EBD2B2DBF5DAEE52EFCFDFFFDFCF01
:100520000BF00B5000017E5D000E7F5902E27EC091
:10053000DFFFDF500B6E0C6AE8507E5D7E6F0C5063
:100540007F597F6F010EDB6ADF50F36E010EDBCF48
:10055000F4FFF350F45C16E2010EDB50EA6A380F48
:10056000E96E040EEA22EF50E66E7BC0E9FF7CC024
:10057000EAFF7B2B000E7C23E552E750EF6E010E65
:10058000DB2AE2D7000ED8807E55000E7F550DE2A3
:10059000C8DBBCDAB6DAEF50400B03E157DBC80E1C
:1005A00002D054DB880EEF6E12D083DA840EEF6E29
:1005B0008051811107E005D081C0FAFF0001805110
:1005C000F96EFADF00017D9F905101E1C3DE020E5A
:1005D000E15C02E2E16AE552E16E87D27CDB000178
:1005E000788FC3DADF6AF7DA02E2A5DAFCD76D8C1E
:1005F000DF6A030EDF5C02E2AEDAFBD7020EE66EC4
:10060000E66AE66A620EE66E000E5DDB6D9C000136
:10061000080E6E6F040E6F6F000E646F040E656F30
:1006200064C066F0676F32C461F0615102E1100E80
:100630000BD0010EE66EE66A610EE66E000EE66E07
:10064000010E40DA0001200E606FE5524ED2800E9E
:100650000401305D38E10001C00E786F04013351B0
:10066000030A1AE0010A09E0030A2BE10001400E27
:10067000766F0D0E776F120E1ED0DADA010EF626A7
:100680000E0EB9DA020E0001CCDAF5CF79F0030EC6
:10069000C8DAF5CF7AF01200030E325D0FE2C8DA45
:1006A000030EF6260E0EA7DA76C0F6FF77C0F7FF28
:1006B0000800F5500001796F7A6B12000001786B29
:1006C00012000001786B1200D8DA0401386B396B24
:1006D00030511F0B020A11E0030A0CE0010A1EE16F
:1006E0000001788F040138810001840517E10401BD
:1006F000388314D00001788F11D00001788F040165
:1007000034BF02D0CFDA01D0D2DA4BDAD8DA06E041
:10071000DDD9EF50040B02E0010E386F000178AF15
:1007200007D0380E766F040E776F7881020E796FDE
:10073000020EE15C02E2E16AE552E16ED6D170A000
:100740000CD0DFD9EF50800807E1C5D9EF508408FD
:1007500003E1D7D98C0EEF6E7090689A120069840D
:1007600068986D820001010E856F21DA750E62EFC7
:1007700005F00001856B1BDA740EA4D96D926994A3
:1007800068A402D06894FCD71200A5DA00012D0EEF
:100790008F6FFD0E861539E17E0E8615E8407F0BC2
:1007A000040DF3CF64F0F4CF65F0000E6427040E5F
:1007B000652364C066F065C067F06675A2D9EF5026
:1007C0003C0BE842E8420D081EE1DF6A080EDF5CE0
:1007D00016E297D9020EE926000ED0D9EF50E66E48
:1007E000DF50EA6A300FE96E040EEA22E552E75064
:1007F000EF6E87D99CDAEE2AEF22DF2AE7D781D97C
:1008000036DA0AD807D023D805D0FD0E861504089D
:1008100001E12CD8E55269D10001746B906B936BA8
:10082000946B886B756B57D9EF9E6E7554D9EF9E9C
:100830006E750CDAEF9E786B796B7A6B7D6B7E6BE5
:100840007F6B4ED8B4D9030E3DD91DEF02F0020ED6
:100850000001755D02E18AEF02F0756B885104E1D9
:1008600028D98C0EEF6E1200886B120034DA33D95F
:10087000EF50400B01E0010EDF6E00016E75080EB7
:10088000605D08E132C46EFF6E5002E0100E01D0D0
:10089000040E606F750513E11ED938D9FBDD020E19
:1008A0000001745D03E117D9840E07D0DF5003E126
:1008B00012D9C80E02D00FD9880EEF6E0FD07DAFBF
:1008C0000CD08051811107E005D081C0FAFF0001F2
:1008D0008051F96EFADF00017D9F756BE55205D1FD
:1008E00004013051600BE842E842E842E842E84245
:1008F000000901E0120031510C0A45E00B0A3FE00B
:100900000C0A31E0010A22E00B0A1EE0020A1CE098
:10091000030A18E0080A10E0010A0CE00F0A08E0D8
:10092000030A01E012000001788F080E606F1200C8
:1009300027EF03F0EEEF02F00001610E766F000E7C
:10094000776F0CD064EF03F0C4EF04F03451000172
:10095000766F776B620E7627000E77237881010E13
:10096000796F788F12000001788F04013451EA6AA0
:10097000620FE96E000EEA2232C4EFFF120017D9AF
:10098000020E62EF05F01200ABD8050EE12604015D
:10099000320510E130511F0B00090CE10001788F86
:1009A000030E0401315D04E10001010E846F02D0E9
:1009B0000001846B0401325101E074D030511F0BEF
:1009C000020870E134510F0B00096CE034510F0B39
:1009D000020868E3200E0001605D64E1788F040185
:1009E00034BF04D05FD9DDD8E8D803D060D9D9D8D6
:1009F000E8D8EA22020EEFCFDBFF21D9010B03E199
:100A0000000EDF9401D0DF8434BF02D04BD901D077
:100A10004ED9EA22DECFEEFFDDCFEDFF030E315DD2
:100A20000CE14DD907E034BF02D0C7D801D0C9D8F6
:100A3000EA22EF82840E80D935D0DF7440D906E0F7
:100A400045D8EF9E43D8EF8C1CD902D03FD8EF8C0D
:100A5000DF74F5D8020B02E132D90DE0040134BF96
:100A600002D0ABD801D0ADD8EA22EF923B0E0B6E8C
:100A700054D907D902D03B0E50D9040134510F0B81
:100A80000C6A700F0B6E0F0E0C22030E0BC0DBFFF7
:100A9000040E0CC0DBFF030EDBCFE9FF040EDBCF3F
:100AA000EAFFEF90050EE15C02E2E16AE552E16ED9
:100AB0001CD037D9DCD826EF06F0FE0EEA6ADB340C
:100AC0006EEF06F0E66EE66A7CEF06F0DECFE9FF39
:100AD000DDCFEAFF12006EC0E9FF6FC0EAFF12002F
:100AE000D9CFE6FFE1CFD9FF1200E552E7CFD9FF1A
:100AF000120034510F0BE96EEA6AD890E936EA36F3
:100B0000120064C0E9FF65C0EAFF120010D9380E78
:100B1000EE6E040EED6E1200FE0EEA6ADB3475EF27
:100B200006F0FD0EDB50E8240D6EFE0EDB50040DCA
:100B3000F3500D241200DF50040DF3CFE9FFF4CF82
:100B4000EAFF000EE926040EEA22EE6AEE6AEE6A79
:100B5000EE6ADF2A1200DF50DBD8EA22EF6ADF50AC
:100B6000D2D8EA22EF6ADF2A1200020EE66EE66AA7
:100B7000E66A710EE66E0F0E63EF06F0EA22EE50A3
:100B8000EFCFEAFFE96E1200E66E82C0E9FF83C094
:100B9000EAFF822B000E8323E552E750EF6EDF065B
:100BA0001200EA22EECFDEFFEDCFDDFF1200000ED5
:100BB000E66EE66AE66EE66A120034510F0B83EFCA
:100BC00006F034510F0B88EF06F00C220BC0DEFF4D
:100BD0000CC0DDFF1200DF500B6E0C6A0C0E0B5CBC
:100BE000000E0C581200FE0EDBCFE6FFEFEC01F01A
:100BF000E552E5521200F7220900F5CF76F00A001F
:100C0000F5CF77F01200160E6F6E9F0E6B6E7B0E97
:100C1000696E1200010EE66EE66A000EE66EE66A86
:100C20001200F76A7625F66E7751F7220800120057
:100C30003251F66EF76AD890F636F7361200D95070
:100C4000020FE96EDACFEAFFEF50120066C0E9FF4B
:100C500067C0EAFF1200040DF3CF0BF0F4CF0CF0E5
:100C6000000E0B26040EB1DF840E9CEF06F05FD859
:100C7000300EEE6E040EED6E120032DF020EE12633
:100C80001200020EE66EE66ADECFE6FFDDCFE6FF7B
:100C9000050E62EF05F00DDF8C0EEF6E1CDF840E8B
:100CA000EF6E120026DF680EE926000E120021DF2B
:100CB0006E0EE926000E120000DFBEEF05F006DF23
:100CC000EF50800B1200E66E54EC07F00B6E050E31
:100CD000E15E0B50120004DFE6521200FE0BEA3612
:100CE000E96E6E0EE926000E1200FE0BEA36E96E82
:100CF000680EE926000E120078EC0BF00B6E060E63
:100D0000E15E0B501200EA6A8C0FE96E000E1200D1
:100D1000EA6A890FE96E000E1200D8DEE850EF167D
:100D2000120094DFEE52080EEF6E26EF06F0020E70
:100D3000E926000EEA221200C9DEE850EF12120086
:100D40001201000202000008D8040A00000101029A
:100D5000000109024300020100C032090400000141
:100D600002020100052400100104240202052406E9
:100D700000010524010001070581030800020904A0
:100D80000100020A000000070502024000000705FA
:100D900082024000000403090434034D006900632B
:100DA0000072006F0063006800690070002000544A
:100DB000006500630068006E006F006C006F0067E4
:100DC000007900200049006E0063002E00340343C8
:100DD00000440043002000520053002D0032003335
:100DE000003200200045006D0075006C0061007449
:100DF0000069006F006E002000440065006D006F08
:090E000000520D950D990DCD0D68
:060E0A001E0EF66E000E44
:100E1000F76E000EF86E05010900F550F46F090039
:100E2000F550F56F03E1F46701D03DD00900F550AE
:100E3000EF6F0900F550F06F0900F550F16F0900F0
:100E40000900F550E96E0900F550EA6E0900090045
:100E50000900F550F26F0900F550F36F0900090021
:100E6000F6CFF6F5F7CFF7F5F8CFF8F5EFC5F6FFC3
:100E7000F0C5F7FFF1C5F8FF0501F25302E1F353A6
:100E800007E00900F550EE6EF207F8E2F307F9D734
:100E9000F6C5F6FFF7C5F7FFF8C5F8FF0501F4073B
:080EA000000EF55BBFD7120044
:080EA800FE0EE3CFE9FFFF0E8F
:100EB000E3CFEAFFE9CFF3FFEACFF4FFFB0EE35005
:100EC00003E1FC0EE35009E0FB0EE30602E2FC0E38
:0C0ED000E306FD0EE350EE6EF1D71200B9
:040EDC00000EF36EA3
:100EE00000EE00F0080E01D81200EA6002D0EE6AAF
:0C0EF000FCD7F350E9601200EE6AFCD75A
:040EFC0013EE00F001
:100F000023EE00F0F86A0A9C05EC07F003EC08F009
:080F10005FEC0AF0FBD71200B0
:080F1800427574746F6E2050E5
:100F200072657373656420646174612D2D200D0AF0
:010F300000C0
:061000007EEF07F0120074
:021006001200D6
:0610080003EF0AF01200E4
:061018004EEF0AF0120089
:02101E000401CB
:1010200030511F0B010801E012003051600BE84203
:10103000E842E842E842E842010801E01200345187
:1010400003E0340501E012003151220A31E0030AC5
:1010500024E0010A15E0210A0DE0010A01E0120076
:101060000001E70E766F050E776F080E796F7A6BC9
:10107000788121D00001E70E766F050E776F1BD0C7
:1010800036C47EF037C47FF000018A0E7B6F050EF8
:101090007C6F806B816B7D8F120000018A0E766FF2
:1010A000050E776F070E796F7A6BC10E786F12009D
:1010B00032C4E2F50001788F120005018A6B4B0EF5
:1010C0008B6F8C6B8D6B8E6B8F6B080E906F050129
:1010D000D66B1A0EE66E010EE66EF4EC00F0E552E9
:1010E000E5521E0EE66E020EE66EF4EC00F0E552DE
:1010F000E55224D90501E06BE16BD76B120049D9A9
:101100007BD9050E061801E1075002E0000E14D04D
:1011100050D90501DE510B1804E1DF510C1801E133
:101120000DD947D90501E0510B1805E1E1510C1823
:1011300002E1D76BDC6B010E31D12BD90501D66BE7
:10114000DE51DF1102E1000E05D041D9EF50800BD6
:1011500001E0010E00092DE1FC0EDBCF0BF037D9C9
:10116000EE52EF50D8800B5405E231D9EE52FC0E0E
:10117000EFCFDBFFD66BFC0EDB50D65D19E2D6510C
:10118000EA6A0A0FE96E050EEA22EF50E66ED651C2
:10119000E76EFD0EDBCFE9FFFE0EDBCFEAFFE75087
:1011A000E926000EEA22E552E750EF6ED62BE3D790
:1011B000C5D80501D651F2D0ECD8A09A0501D75177
:1011C00007E1F0D8FC0EDBCFDCF5010EDD6FD76F49
:1011D000A08AE4D00AD917E1C6D8F2D802E10C50AF
:1011E0000BE0010EDBCFE9FFDB2A020EDBCFEAFFCB
:1011F00001E3DB2AEF50F1E1D5D8DFCFDCF50501C3
:10120000010EDD6FD76FA08A030EE15C02E2E16A96
:10121000E552E16EC3D0E9D818E1A5D8D1D802E1F2
:101220000C500CE0010EDBCFF6FFDB2A020EDBCF09
:10123000F7FF01E3DB2A0800F550F0E1B3D8DFCF78
:10124000DCF50501DD6B010ED76FA08A030EE15CB2
:1012500002E2E16AE552E16EA1D09BD8020EE126DE
:10126000A09A0501E051E11102E1000E08D0E0C5AD
:10127000E9FFE1C5EAFFEF50800B01E0010E000934
:1012800006E1030ED75D01E1D76BD75102E1A08AD9
:101290004ED0020ED75D09E1E66A000EE66EE66A00
:1012A0005AD80501030ED76F41D0D7053FE1400E54
:1012B0000B6E0C6ADC510B5C000E0C5803E2400E06
:1012C000DF6E02D0DCC5DFFFDF50DC5DDC6F4A0E75
:1012D000DA6F050EDB6F010EDFCFDBFFDD510BE1B7
:1012E000010EDB5012E0D8C5F6FFD9C5F7FF0800A4
:1012F000F55042D8F5D7010EDB5007E0D8C5E9FF1D
:10130000D9C5EAFFEF5038D8F6D70501DC5107E11F
:10131000400EDF5C02E1020E01D0030ED76FDFCF7B
:10132000E6FF4A0EE66E050EE66E15D8A08A020E9E
:10133000E15C02E2E16AE552E16E30D0400EE66E19
:101340000A0EE66E050EE66EE66A46D8F3CFDEF5C7
:10135000F4CFDFF51200010EE66E3ED8F3CFE0F5D4
:10136000F4CFE1F51200DF6A47D8DE5206C0DEFF97
:1013700007C0DDFFDD521200DAC5E9FFDBC5EAFF79
:10138000EF6EDA2B000EDB23D82BD923010EDB0600
:101390001200D9CFE6FFE1CFD9FF1200E552E7CF27
:1013A000D9FF1200FD0EDBCFD8F5FE0EDBCFD9F54D
:1013B0001200FB0EDBCF0BF0FC0EDBCF0CF01200AB
:1013C000DF2ADF500B6E0C6AFF0E0B181200DEC511
:1013D000E9FFDFC5EAFF1200020EE66E18EC01F02D
:1013E0000B6E050EE15E0B501200D3DF030EE126FB
:1013F000A09A0501D7511200FD0EDBCF06F0FE0EBC
:06140000DBCF07F0120033
:0A140600DACFE4FFE2CFDAFFE9CF0E
:10141000E4FFEACFE4FFF6CFE4FFF7CFE4FFF5CF38
:10142000E4FFF3CFE4FFF4CFE4FFFACFE4FF00EEF4
:1014300000F00B0EE80403E3EECFE4FFFBD700EE71
:101440000BF0030EE80403E3EECFE4FFFBD7E65214
:1014500066EC00F0E55200EE0DF0030EE80403E345
:10146000E5CFEDFFFBD700EE0AF00B0EE80403E337
:10147000E5CFEDFFFBD7E5CFFAFFE5CFF4FFE5CFF2
:10148000F3FFE5CFF5FFE5CFF7FFE5CFF6FFE5CFBB
:10149000EAFFE5CFE9FFE5CFDAFF1100D8CFE4FF9F
:1014A000E0CFE4FFE46EDACFE4FFE652E552E5CFA9
:1014B000DAFFE550E5CFE0FFE5CFD8FF10005FD9B8
:1014C000DE6ADD6A12D8DE6ADD6A60D907E267D9B2
:1014D000EF6ADF2A010EF9E3DB2AF7D7000160513A
:1014E00002E197EC01F03AD8F9D70F0EC11202D8F9
:1014F00016EF00F00501D36BD26B010ED16F928015
:10150000C294C296C298C29AC190C192C194C19627
:10151000C198C19AC09EC086C098C08AC080C0923F
:10152000C084C2809388939A120029D9DE6ADD6A4A
:101530002DD90DE2C282C2A202D086D8FCD72FD903
:10154000C4CFEFFFDF2A010EF3E3DB2AF1D7020E4F
:10155000E15C02E2E16AE552E16E2AD110D974D869
:10156000200E0001E76E6019E8AE02D0E73402D029
:10157000E750605D62E36D50020B5FE10501D251FF
:1015800011E0D15110E10501D7510DE1180EE66EC1
:101590000F0EE66E0BEC09F0E552E5520501010E67
:1015A000D16F01D0D16B0501D75145E1400EE66EF8
:1015B000910EE66E050EE66E9DEC08F0E552E552E2
:1015C000E552DF6EDF5037E0010EDB6ADF50F36E6D
:1015D000010EDBCFF4FFF350F45C2DE2010EDB5083
:1015E000EA6A910FE96E050EEA22EF50510A20E0F7
:1015F000020A05E0590A0AE0070A08E107D095DF68
:10160000E668000EE66E010EE66E0DD0DFCFE6FF57
:10161000010EDB500C6A910F0B6E050E0C220BC0F5
:10162000E6FF0CC0E6FFDCEC08F0E552E552E552BF
:10163000010EDB2ACBD72DEC09F0020EE15C02E2B1
:10164000E16AE552E16EB4D00501F951FA1104E105
:10165000100EF96F270EFA6FF907000EFA5BF951B9
:10166000FA1101E1817A1200120012008150100B70
:1016700001E0010E0501D25D0DE1D35102E0D30777
:1016800012008150100B100A01E0010ED26F640E9F
:10169000D36F1200D35101E0D307120012000FEFF5
:1016A00008F012005DEF08F00001840520E1000160
:1016B00085051DE1A09AD9DF6D920001856B0501BA
:1016C000100ED46F0E0ED56FD407000ED55BD4511B
:1016D000D511FAE16D84080ED46F070ED56FD407CB
:1016E000000ED55BD451D511FAE16D94A08A120099
:1016F000D9CFE6FFE1CFD9FFFD0EDBCF06F0FE0E1E
:10170000DBCF07F0050E061801E1075036E0E86868
:10171000061802E17F0E07182FE0030E061801E1FC
:10172000075028E0020E061801E1075021E0010EE3
:10173000061801E107501AE0740E061801E107507F
:1017400013E0750E061801E107500CE0730E061841
:1017500001E1075005E0720E06180FE107500DD0A9
:1017600085DF0BD081DF09D080DF07D09BDF05D07C
:1017700098DF03D094DF01D091DF010E19D0D9CFCB
:10178000E6FFE1CFD9FF020EE1261200DECF0BF01B
:10179000DDCF0CF0FF0E0B5C000E0C581200DECFFC
:1017A000E9FFDDCFEAFF000EE926010EEA22120072
:0817B000E552E7CFD9FF12005A
:020000040030CA
:0100000024DB
:010001000EF0
:010002003FBE
:010003001EDE
:010005008179
:010006008178
:010008000FE8
:01000900C036
:01000A000FE6
:01000B00E014
:01000C000FE4
:01000D0040B2
:00000001FF
